:1000000000200010590A0000BD0A0000C50A0000C7
:1000100000000000000000000000000000000000E0
:10002000000000000000000000000000CD0A0000F9
:100030000000000000000000D50A0000ED250000CF
:10004000DD0A0000DD0A0000DD0A0000DD0A000014
:10005000DD0A0000DD0A0000DD0A0000DD0A000004
:10006000DD0A0000DD0A0000DD0A0000DD0A0000F4
:10007000DD0A00002502000061020000C90C00003A
:10008000952600002D040000DD0A0000312100004B
:10009000F9230000192700009D020000D90200008A
:1000A000DD0A0000DD0A0000DD0A0000DD0A0000B4
:1000B00081030000DD0A0000DD0A000015030000D6
:1000C0000C3900000000001054040000540400101B
:1000D0004C06000080B500AF62B6BD4680BDC0468C
:1000E00080B500AF72B6BD4680BDC04680B582B057
:1000F00000AF021CFB1D1A70084AFB1D1B78191C5F
:100100001F230B400121081C9840031C191C80234D
:100110005B00D150BD4602B080BDC04600E100E0AA
:1001200080B582B000AF021CFB1D1A70084AFB1D8F
:100130001B78191C1F230B400121081C9840031C2D
:10014000191CC0235B00D150BD4602B080BDC04623
:1001500000E100E090B583B000AF78603960FFF750
:10016000BFFF114A104B5B69181C79680B1C5B00C0
:100170005B1801210C1C9C40231CDB430340536192
:10018000094A094B5B69181C79680B1C5B005B18FA
:1001900039680C1C9C40231C03435361FFF79AFFF2
:1001A000BD4603B090BDC0460000014080B582B09E
:1001B00000AF78603960FFF793FF094B7A689200CF
:1001C000D158084B7A689200D2583B68081C111C21
:1001D0001A1C00F0FBFCFFF77DFFBD4602B080BD9E
:1001E0008C3200009C32000080B582B000AF786095
:1001F0003960FFF775FF094B7A689200D158084BB8
:100200007A689200D2583B68081C111C1A1C00F036
:1002100069FCFFF75FFFBD4602B080BD8C32000075
:100220009C32000080B582B000AF00237B600A4B97
:100230007A689200D3587A68101C191C00F0A8FA4A
:10024000064A7B68D3181B785BB2181CFFF768FF5F
:10025000BD4602B080BDC046D8040010100000109A
:1002600080B582B000AF01237B600A4B7A689200B0
:10027000D3587A68101C191C00F08AFA064A7B6869
:10028000D3181B785BB2181CFFF74AFFBD4602B0BB
:1002900080BDC046D80400101000001080B582B0A8
:1002A00000AF02237B600A4B7A689200D3587A68C9
:1002B000101C191C00F06CFA064A7B68D3181B78D6
:1002C0005BB2181CFFF72CFFBD4602B080BDC046D4
:1002D000D80400101000001080B582B000AF0323D6
:1002E0007B600A4B7A689200D3587A68101C191CFC
:1002F00000F04EFA064A7B68D3181B785BB2181CD4
:10030000FFF70EFFBD4602B080BDC046D804001006
:100310001000001080B500AF144B5A68144B5B6896
:10032000101C191C00F08AFC031C1CD0114B5B68CC
:10033000002B10D101200021FFF738FF0E4B5B6826
:100340000E4A926832321A6001200121FFF702FF43
:10035000084B0D225A60054B5A68054B5B68101C10
:10036000191C00F083FCBD4680BDC0468C320000E5
:100370009C320000E8040010000000100000014062
:1003800080B582B000AF00237B603EE07B68012B2C
:1003900037D0214B7A689200D258204B7968890077
:1003A000CB58101C191C00F049FC031C2AD01C4B14
:1003B0007A689200D358002B16D17B68181C002154
:1003C000FFF7F4FE174B7A689200D358164A9268EA
:1003D00032321A607B68181C0121FFF7BBFE104BFC
:1003E0007A6892000D21D1500B4B7A689200D25856
:1003F0000A4B79688900CB58101C191C00F036FC98
:1004000000E0C0467B6801337B607B68032BBDD96D
:10041000BD4602B080BDC0468C3200009C32000058
:10042000E8040010000000100000014080B582B018
:1004300000AF00237B6016E00E4B1B687A68012139
:10044000081C9040021C13400AD07B68181C00F066
:1004500013F8084B7A680121081C9040021C1A60AE
:100460007B6801337B607B68032BE5D9BD4602B016
:1004700080BDC0460000014080B584B000AF786008
:10048000B94B7A689200D358172B00D94DE19A00E6
:10049000B64BD3181B689F46B54B7A689200D35869
:1004A000B44A926864321A60B34B7A689200D258A8
:1004B000B24B79688900CB58101C191C00F068FBFE
:1004C000031CFB60FB68012B20D17B68181C0021FA
:1004D000FFF740FEA84B7A689200D258A74B796884
:1004E0008900CB58101C191C00F0C0FB7B68181C3D
:1004F0000121FFF75BFE9C4B7A6892000021D150EE
:100500009F4B1B685A1C9E4B1A602AE19D4B7A68D0
:1005100092000021D150944B7A6892000E21D15064
:100520001FE1934B7A689200D358924A92686432E2
:100530001A60914B7A689200D258904B7968890082
:10054000CB58101C191C00F023FB031CFB608D4BC7
:100550007A689200D3581A1C834B79688900CB586B
:100560000E3BF968081C9840031C111C1943854B6D
:100570007A689200D1507C4B7A689200D358591C0B
:10058000794B7A689200D150EBE0794B7A6892000F
:10059000D358784A926832321A60774B7A68920060
:1005A000D258764B79688900CB58101C191C00F082
:1005B000EFFA031CFB60FB68002B04D1724B1B6835
:1005C0005A1C714B1A60684B7A6892001721D150FF
:1005D000C7E07B68181C0021FFF7BCFD6B4A7B68F5
:1005E000D3181B785BB2181CFFF780FD624B7A684A
:1005F0009200D258614B79688900CB58101C191CA5
:1006000000F034FB7B68181C0121FFF7CFFD564B2F
:100610007A6892000021D150A3E0554B7A6892008D
:10062000D358544A926864321A60534B7A689200E5
:10063000D258524B79688900CB58101C191C0022E3
:1006400000F08AFA484B7A6892000221D15088E083
:10065000474B7A689200D358464A926864321A60CF
:10066000484B7A689200D3581A1C3F4B796889002E
:10067000CB58023BDA4001231340FB603E4B7A68C3
:100680009200D1583D4B7A689200D258FB68081C02
:10069000111C1A1C00F060FA334B7A689200D35890
:1006A000591C314B7A689200D1505AE0304B7A682D
:1006B0009200D3582F4A926864321A600123FB607B
:1006C0002D4B7A689200D1582C4B7A689200D25800
:1006D000FB68081C111C1A1C00F03EFA224B7A68B9
:1006E00092000B21D1503CE07B68181C0021FFF7E1
:1006F00031FD7B68181C0021FFF776FD1E4B7A68E0
:100700009200D2581D4B79688900CB58101C191CD7
:1007100000F0ACFA7B68181C0121FFF747FD124B73
:100720007A6892000021D1501BE07B68181C0021E0
:10073000FFF710FD104B7A689200D2580F4B796882
:100740008900CB58101C191C00F090FA7B68181C0B
:100750000121FFF72BFD044B7A6892000021D15054
:10076000C046BD4604B080BDE8040010AC320000B5
:1007700000000010000001408C3200009C3200009C
:1007800068040010D80400106C0400101000001061
:1007900090B583B000AF78603960484B7A689200BA
:1007A000D358002B1DD1454B7A689200D4583B6832
:1007B000D8B243497A68131CDB019B185B001B19F4
:1007C000021C5A543F4B7A6892003968D1503B4B17
:1007D0007A689200D358591C384B7A689200D150ED
:1007E00069E0364B7A689200D358012B1DD1334B08
:1007F0007A689200D4583B68D8B231497A68131CA1
:10080000DB019B185B001B19021C5A542E4B7A68A3
:1008100092003968D150294B7A689200D358591CFC
:10082000264B7A689200D15045E0244B7A689200BA
:10083000D4583B68D8B222497A68131CDB019B1854
:100840005B001B19021C5A541C4B7A689200D35847
:10085000591C1A4B7A689200D1501B4B7A6892004F
:10086000D3589A1C154B79688900CB589A4222D1EB
:10087000124B7A6892000021D15011497A68131CFA
:10088000DB019B185B005B5CDBB2002B04D17B6857
:10089000181C00F01DF80EE009497A68131CDB01F2
:1008A0009B185B005B5CDBB2012B04D1074B7A68C1
:1008B00092000121D150BD4603B090BD70040010DC
:1008C000F80400108004001090040010540400107C
:1008D00080B584B000AF786020497A68131CDB01D2
:1008E0009B185B00CB1802331B78DBB2FB601B4903
:1008F0007A68131CDB019B185B00CB1803331B7851
:10090000DBB21B02FA681343FB6014497A68131CBC
:10091000DB019B185B00CB1804331B78DBB21B0494
:10092000FA681343FB600D497A68131CDB019B18BE
:100930005B00CB1805331B78DBB21B06FA68134348
:10094000FB60FB68181C01F079FE054B1B685A1C04
:10095000034B1A60BD4604B080BDC046F8040010C9
:100960006404001080B500AF0A4B00229A60094B66
:1009700000221A65074AA0230021D150002000F070
:100980000BF8002000F028F8002000F045F8BD46E4
:1009900080BDC0460040044080B582B000AF7860A2
:1009A0007B68002B0AD002200021012200F09AF877
:1009B00002200021002200F0CFF809E002200021EF
:1009C000002200F08FF802200021012200F0C4F87C
:1009D000BD4602B080BDC04680B582B000AF786031
:1009E0007B68002B0AD000200721012200F07AF852
:1009F00000200721002200F0AFF809E000200721C5
:100A0000002200F06FF800200721012200F0A4F876
:100A1000BD4602B080BDC04680B582B000AF7860F0
:100A20007B68002B0AD001200521012200F05AF832
:100A300001200521002200F08FF809E001200521A6
:100A4000002200F04FF801200521012200F084F877
:100A5000BD4602B080BDC04680B582B000AF124B2B
:100A60007B60124B3B6009E07B681A783B681A7028
:100A70003B6801333B607B6801337B603A680C4B19
:100A80009A42F1D30B4B3B6005E03B6800221A70A1
:100A90003B6801333B603A68074B9A42F5D302F05A
:100AA00015FA00F0C5FBFEE70C390000000000104D
:100AB0005404001054040010A00A001080B500AFC8
:100AC000FEE7C04680B500AFFEE7C04680B500AF88
:100AD000FEE7C04680B500AFFEE7C04680B500AF78
:100AE000FEE7C04690B585B000AFF860B9607A60A7
:100AF0007B68002B15D0174BFA689200D258154B23
:100B0000F9688900C95880231B02CB58191CBB689F
:100B10000120041C9C40231C194380231B02D1503C
:100B200014E00C4BFA689200D2580A4BF96889001D
:100B3000C95880231B02CB58B9680120041C8C4083
:100B4000211CC943194080231B02D150BD4605B06A
:100B500090BDC0460C33000090B585B000AFF86082
:100B6000B9607A60094BFA689200D358BA680121DB
:100B7000081C9040021CB9687868041C8C40211C39
:100B80009200D150BD4605B090BDC0460C33000068
:100B900080B584B000AF786039600B4B7A68920002
:100BA000D3583A680121081C9040021C9200D35887
:100BB000FB603B68FA68111CD9400B1CFB60FB68AA
:100BC000181CBD4604B080BD0C33000090B585B044
:100BD00000AFF860B9607A607B68002B13D0154BCA
:100BE000FA689200D258134BF9688900C958124B21
:100BF000CB58191CBB680120041C9C40231C1943C2
:100C00000D4BD15012E00B4BFA689200D258094BB1
:100C1000F9688900C958084BCB58B9680120041CF1
:100C20008C40211CC9431940034BD150BD4605B02F
:100C300090BDC0460C3300001080000080B582B02B
:100C400000AF78603960074B7A689200D258064B43
:100C5000D3581A1C3B68DA4001231340181CBD46C8
:100C600002B080BD0C3300001880000080B582B057
:100C700000AF78603960074B7A689200D2583B68C1
:100C80000121081C9840031C191C034BD150BD4680
:100C900002B080BD0C3300001C80000080B582B023
:100CA00000AF021CFB1D1A70064BFA1D1278111CB6
:100CB0001F220A400121081C9040021C1A60BD46F8
:100CC00002B080BD00E100E080B582B000AF8023BB
:100CD000DB055B681A1CFB1D1A70FB1D1B78083BAB
:100CE000502B00D9CAE09A00684BD3181B689F4666
:100CF000674B00221A608023DA05654B1B68654943
:100D0000C95CC9B291605A1C614B1A608023DB0533
:100D100028229A61604B01221A60B4E05F4B0022E6
:100D20001A608023DA055A4B1B685A49C95CC9B25C
:100D300091605A1C564B1A608023DB0528229A6169
:100D4000554B02221A609EE0534B1B68012B0DD1BC
:100D50008023DA054E4B1B684E49C95CC9B29160CD
:100D60005A1C4B4B1A604C4B04221A608023DB0543
:100D700008229A6187E0464B1A68494B1B689A42E1
:100D80000ED28023DA05424B1B684249C95CC9B2C6
:100D900091605A1C3E4B1A603F4B04221A6012E0CD
:100DA000404B1B68002B07D08023DB0520221A60F4
:100DB000394B03221A6006E0374B05221A60802364
:100DC000DB0510221A608023DB0508229A615AE0B5
:100DD000344B1B68012B04D18023DB0504229A616C
:100DE00003E08023DB0504221A608023DB05082250
:100DF0009A6148E0294B1B688022D2059268D1B2E3
:100E0000294AD1545A1C254B1A60244B1A68254B89
:100E10001B689A4207D2204B04221A608023DB050C
:100E200004221A6006E01C4B05221A608023DB05B1
:100E300004229A618023DB0508229A6123E0174B84
:100E40001B688022D2059268D1B2174AD1545A1C2D
:100E5000124B1A60104B05221A608023DB0510220A
:100E60001A608023DB0508229A610CE08023DB05F1
:100E700008229A61084B05221A6004E08023DB05F2
:100E800008229A61C046BD4602B080BD1C330000F6
:100E9000A804001034090010A0040010A4040010DD
:100EA0003C090010240900102809001080B582B008
:100EB00000AF00237B6000233B608023DB05202202
:100EC0001A600B4B1B68012B02D101233B600AE027
:100ED0007A68084B9A4202D900233B6003E07B68A2
:100EE00001337B60EDE73B68181CBD4602B080BD56
:100EF000A0040010FEFFFF0080B500AF8023DB05DB
:100F000010221A608023DB0508229A61C0468023E4
:100F1000DB051B681A1C10231340F8D10123181C91
:100F2000BD4680BD80B582B000AF7860234B234AB8
:100F3000526802210A435A60204A20498023CB5834
:100F4000202119438023D1501D4B1D4A126B3F2194
:100F50008A431A631A4B1A4A126B01210A431A6315
:100F6000174B174A526B3F218A435A63144B144A5A
:100F7000526B01210A435A638023DB056C229A617C
:100F80008023DB05C02252005A618023DB05C0228A
:100F900052001A617B68022B03D18023DB05A0225B
:100FA000DA600F20FFF77AFE8023DB0540221A600B
:100FB0000123181CBD4602B080BDC046008004401D
:100FC0000040044080B500AF0E4B00221A600E4B6B
:100FD00000221A600D4B00221A60FFF767FF031C06
:100FE000012B04D0FFF788FF002308E0C046054B23
:100FF0001B68052BFAD1FFF77FFFC0460123181CA1
:10100000BD4680BDA0040010A4040010A804001078
:1010100080B584B000AF021CFB1D1A70FB1D1A784E
:101020000C4B9200D258FB1D19780B4B8900CB5802
:10103000101C191CFFF7ACFD031CDAB23B1C0F336C
:1010400001214A401A703B1C0F331B78181CBD4607
:1010500004B080BD603400007834000090B583B0E7
:1010600000AF00237B6045E07B68DBB2FC1C181CF2
:10107000FFF7CEFF031C2370214A7B68D3181B782F
:10108000042B31D89A001F4BD3181B689F46FB1CBA
:101090001B785A1E9341DAB219497B68CB181A7033
:1010A00025E0FB1C1B78002B01D0022300E000236D
:1010B00013497A688A18137019E0FB1C1B78002BFF
:1010C00001D0032300E000230D497A688A181370C9
:1010D0000DE0FB1C1B78002B01D0042300E0002353
:1010E00007497A688A181370C04600E0C0467B68DA
:1010F00001337B607B68052BB6D9BD4603B090BD3C
:10110000400900109034000080B584B000AF324B2D
:101110001B680122111C99400B1C3B600023BB6023
:101120000023FB6015E02C4B1A682C4BF968C900B2
:101130008A189200D25801231A40FB680721CB1A63
:10114000111C99400B1CBA681343BB60FB68013348
:10115000FB60FB68072BE6D900237B600023FB6064
:1011600016E01D4B1A681D4BF968C9008A189200D9
:10117000D258022313405A08FB680721CB1A111CCE
:1011800099400B1C7A6813437B60FB680133FB605A
:10119000FB68072BE5D93B68181C01F071F9BB68A7
:1011A000181C01F06DF97B68181C01F069F9012029
:1011B00009210122FFF7D0FC012009210022FFF7BD
:1011C000CBFC054B1B685A1C07231A40024B1A60C4
:1011D000BD4604B080BDC046AC04001048090010F4
:1011E00080B584B002AF78607B6800930020002156
:1011F0007F22012300F006FE7B68009300207F2100
:101200007F22012300F0FEFD7B6800930020002177
:1012100001227F2300F0F6FD7B6800937F200021F0
:1012200001227F2300F0EEFDBD4602B080BDC04626
:1012300090B58BB000AF01F0C5F9FFF793FB00F05C
:10124000E5F900F0B3F8E1239B02181C01F0F2FA73
:101250003B1C1833181C00F023F93B1C0C33181CE2
:1012600000F01EF93B1C181C00F01AF93B1C273338
:1012700000221A703B1C26333A1C273212781A704F
:10128000012000F0B5FE00E0C0463C1C253400F013
:10129000E3F8031C23703C1C243400F0E9F8031C21
:1012A00023703C1C233400F0EFF8031C23703B1C1C
:1012B00025331B783A1C1832101C191C00F00AF94F
:1012C0003B1C24331B783A1C0C32101C191C00F0F8
:1012D00001F93B1C23331B783A1C101C191C00F02D
:1012E000F9F80020002100F08FFE3B1C25331B780D
:1012F0005BB22B4A101C191C00F098FE3B1C2433D7
:101300001B785BB2274A101C191C00F08FFE3B1C97
:1013100023331B785BB2244A101C191C00F086FE94
:101320003C1C2634391C18313A1C0C323B1C081C5E
:10133000111C1A1C00F02AF9031C23703B1C2733D4
:101340001B785BB2002B14D13B1C26331B785BB29D
:10135000012B0ED13B1C27333A1C263212781A700F
:10136000FC23DB00181CFFF73BFF522001F0FAFAC8
:101370008AE73B1C27331B785BB2012B84D13B1CD3
:1013800026331B785BB2002B00D07DE73B1C273354
:101390003A1C263212781A700020FFF721FF73E7FB
:1013A000A4340000AC340000B434000080B500AFB9
:1013B0000120FFF7B7FD031C00D1FEE720204721E5
:1013C00000F002F8BD4680BD80B582B000AF786005
:1013D00039600B4B03221A600A4B00221A600A4B39
:1013E00038221A707B68DAB2074B5A703B68DAB25F
:1013F000054B9A70FFF7E6FDBD4602B080BDC046C2
:101400003C090010240900103409001080B582B096
:1014100000AF78600C4B02221A600C4B01221A605C
:101420000B4B38221A707B68DAB2094B5A70084BA2
:1014300039229A70FFF7C6FD064B1B78DBB2181CE9
:10144000BD4602B080BDC0463C0900102409001012
:10145000340900102809001080B500AF2920FFF7DB
:10146000D5FF031CDBB25BB2181CBD4680BDC04675
:1014700080B500AF2B20FFF7C9FF031CDBB25BB2C6
:10148000181CBD4680BDC04680B500AF2D20FFF7BB
:10149000BDFF031CDBB25BB2181CBD4680BDC0465D
:1014A00080B584B000AF78600023FB6008E07A6804
:1014B000FB68D31801337F221A70FB680133FB608D
:1014C000FB68092BF3DD7B6800221A70BD4604B06F
:1014D00080BDC04680B582B000AF78600A1CFB1C9E
:1014E0001A707B681B781A1CF91C097878688218B6
:1014F00051700133DAB27B681A707B681B78092B54
:1015000002D97B6800221A70BD4602B080BDC04679
:1015100080B586B000AF786000233B613B697B619A
:101520000023FB6023E03B1C0B337968FA688A18C0
:10153000013212781A703B1C0B331B785BB21A1CF9
:101540007C3210DB3B1C0B331B785BB27C2B0ADC40
:101550003B1C0B331B785BB27A69D3187B613B6908
:1015600001333B6100E0C046FB680133FB60FB6870
:10157000092BD8DD7869396901F06AFD031CDBB2FB
:101580005BB2181CBD4606B080BDC04690B587B0A2
:1015900000AFF860B9607A603C1C1734FB68181C17
:1015A000FFF7B6FF031C23703C1C1634BB68181CE5
:1015B000FFF7AEFF031C23703C1C15347B68181C1E
:1015C000FFF7A6FF031C23703B1C17331B785BB28D
:1015D000181C01F09FFD031C092B11DC3B1C16336A
:1015E0001B785BB2181C01F095FD031C092B07DC6E
:1015F0003B1C15331B785BB2282B01DD012300E077
:1016000000235BB2181CBD4607B090BD80B5C2B0C8
:1016100000AFA54A94230021D150012004210022CB
:10162000FFF79AFA012004210122FFF75BFA01205B
:1016300004210022FFF790FA9B4B00225A610120FF
:1016400008210122FFF74EFA012008210022FFF7AE
:1016500083FA0A2001F004F8012008210122FFF793
:101660007BFA09200121002200F058FE8F4B042252
:101670001A618F4B84204000C019C318A4221A603D
:101680003B1D181C00F03EFA894B84225200D219EF
:10169000D318884A1A60864B84204000C019C318AA
:1016A00012225A603B1D181C00F02CFA804B842239
:1016B0005200D219D3187F4A1A607D4B8420400013
:1016C000C019C318B1225A603B1D181C00F01AFA49
:1016D000774B84225200D219D318AE221A603B1DD8
:1016E000181C00F00FFA724B84204000C019C31878
:1016F000714A1A606E4B84225200D219D318F1221B
:101700005A603B1D181C00F0FDF9694B8420400015
:10171000C019C318E52252001A60654B842252009A
:10172000D219D3187F225A603B1D181C00F0EAF929
:101730005F4B84204000C019C318D12252001A60A8
:101740005B4B84225200D219D31800225A603B1DF1
:10175000181C00F0D7F9564B84204000C019C3185C
:10176000564A1A60524B84225200D219D3180022D2
:101770005A603B1D181C00F0C5F94D4B84204000F9
:10178000C019C318D02252001A60494B842252005B
:10179000D219D31874225A603B1D181C00F0B2F9FC
:1017A000434B84204000C019C318454A1A60404B7F
:1017B00084225200D219D31800225A603B1D181CF3
:1017C00000F0A0F93A4B84204000C019C3183D4AEC
:1017D0001A60374B84225200D219D31801225A6062
:1017E0003B1D181C00F08EF9314B84204000C019BD
:1017F000C318ED2292001A602D4B84225200D21998
:10180000D318A0225A602A4B84204000C019C31864
:10181000B5229A60264B84225200D219D318552241
:10182000DA603B1D181C00F06DF9214B842040004C
:10183000C019C318244A1A601D4B84225200D219C1
:10184000D318C8225A601A4B84204000C019C3180C
:1018500080229A60164B84225200D219D318C822D3
:10186000DA603B1D181C00F04DF9114B842040003C
:10187000C019C318154A1A600D4B84225200D219A0
:10188000D3180F225A603B1D181C00F03BF9084B7F
:1018900084204000C019C3180D4A1A6001237A1D24
:1018A000FF3213602EE0C0460040044000000440B8
:1018B000FCFEFFFFFD010000B3010000A1010000DC
:1018C000B5010000AB010000C1030000C70100002A
:1018D000B83F0000781DFF300368013B804AD35CAD
:1018E000191C804B84225200D219D318781DFF3066
:1018F00002689200D1507A1DFF3213680133781DBF
:10190000FF3003607A1DFF3213683F2BE2D93B1D85
:10191000181C00F0F7F8734B84204000C019C3185E
:10192000714A1A606F4B84225200D219D3183222A6
:101930005A603B1D181C00F0E5F86A4B84204000FB
:10194000C019C318694A1A60664B84225200D21922
:10195000D318A4225A60634B84204000C019C318D6
:1019600000229A605F4B84225200D219D3180022C1
:10197000DA603B1D181C00F0C5F85A4B842040006B
:10198000C019C3185A4A1A60564B84225200D21901
:10199000D31817225A603B1D181C00F0B3F8514BA6
:1019A00084204000C019C318DB2252001A604D4B3E
:1019B00084225200D219D31801225A603B1D181CF0
:1019C00000F0A0F8474B84204000C019C318DF2264
:1019D00052001A60434B84225200D219D3180522B8
:1019E0005A603B1D181C00F08DF83E4B84204000CF
:1019F000C019C318A6221A603B1D181C00F082F8FB
:101A0000384B84225200D219D3183A4A1A60354B07
:101A100084204000C019C31800225A60314B842230
:101A20005200D219D3187F229A603B1D181C00F077
:101A300069F82C4B84204000C019C3182E4A1A6044
:101A4000284B84225200D219D31800225A60254B09
:101A500084204000C019C3187F229A603B1D181CC7
:101A600000F050F81F4B84225200D219D3185C2288
:101A70001A603B1D181C00F045F80023781DFF304C
:101A8000036009E0002000F06BF87A1DFF32136854
:101A90000133781DFF3003607B1DFF331A68174B3D
:101AA0009A42EFD9012004210122FFF755F81420B2
:101AB00000F0D6FD0B4B84204000C019C318AF22A4
:101AC0001A603B1D181C00F01DF80D4B181C00F08F
:101AD000ADFA0020002100F097FABD4642B080BD6B
:101AE000BC370000FCFEFFFFB1010000B2030000A4
:101AF000BB0100001502000075020000FF3F00005E
:101B0000FC37000080B586B000AF78607B681B684A
:101B10001A0AFF2313403B617B681A68FF231340B6
:101B2000FB60FB68181C00F0ABFC00237B6110E03D
:101B30007B6901339B007A68D3181B6880225200AE
:101B40001343BB60BB68181C00F09AFC7B6901332F
:101B50007B617A693B699A42EAD3BD4606B080BD93
:101B600080B584B000AF78607B681A0AFF23134009
:101B7000802252001343FB607A68FF2313408022C7
:101B800052001343BB60FB68181C00F079FCBB6873
:101B9000181C00F075FCBD4604B080BD80B59AB03D
:101BA00000AFB9607A603B603B1C0F33021C1A70B7
:101BB0003B1C0F331B781F2B0BD93B1C0F331B789F
:101BC0005BB2002B03DB3B1C0F331B7800E07F2351
:101BD00000E020233A1C0F3213707B6F0822111C87
:101BE00099400B1CBA685343FB657B6F0822111C9C
:101BF00099400B1C7A685343BB657B6F0822111C0C
:101C000099400B1C7B657B6F0822111C99400B1CB3
:101C10003B657B6D8022D21AFB6D9A4200D2E3E0D5
:101C20003B6D8022D21ABB6D9A4200D2DCE0704B31
:101C30001B68012B0DD06E4B1B68022B07D06C4B21
:101C40001B68032B01D1BB6D00E0FB6D00E0FB6D59
:101C500000E0BB6DFB64664B1B68012B04D1BA6DC1
:101C60003B6DD318013B15E0614B1B68022B04D17F
:101C7000FA6D7B6DD318013B0CE05D4B1B68032BA9
:101C800004D1BA6D3B6DD318013B03E0FA6D7B6D57
:101C9000D318013BBB64564B1B68012B0DD0544B32
:101CA0001B68022B07D0524B1B68032B01D1FB6D25
:101CB00000E0BB6D00E0BB6D00E0FB6D7B644C4B56
:101CC0001B68012B04D1FA6D7B6DD318013B15E025
:101CD000474B1B68022B04D1BA6D3B6DD318013BF7
:101CE0000CE0434B1B68032B04D1FA6D7B6DD318BA
:101CF000013B03E0BA6D3B6DD318013B3B643B1CD9
:101D000010333C4A1A60FB6C7F2B00D97F233A1CAE
:101D100010325360BB6C7F2B00D97F233A1C1032EA
:101D200093603B1C1033181CFFF7ECFE3B1C103378
:101D3000314A1A607B6C7F2B00D97F233A1C10320A
:101D400053603B6C7F2B00D97F233A1C1032936089
:101D50003B1C1033181CFFF7D5FE3B1C10335C22D4
:101D60001A603B1C1033181CFFF7CCFE00233B66A7
:101D700036E000237B662CE07B6F7A6E111CD94025
:101D80000B1CFB637B6F3A6E111CD9400B1CBB63B1
:101D90003B1C0F331B78194A9B18DA00BB6BD31816
:101DA000174AD35C7B63FB6B0722D31A7A6BDA404A
:101DB000012313407B637B6B012B01D13B6800E067
:101DC0003B6F3B633B6B181CFFF7CAFE7B6E013316
:101DD0007B667A6E7B6D9A42CED33B6E01333B6657
:101DE0003A6E3B6D9A42C4D3BD461AB080BDC04620
:101DF000C00400101502000075020000E0FFFF1F84
:101E0000BC34000080B594B000AFF860B9607A606F
:101E10003B60FA687B68D318BB64BA683B68D31828
:101E20007B64FB68002B00DA0023FB60FB68802BDF
:101E300000DD8023FB60BB68002B00DA0023BB6061
:101E4000BB68802B00DD8023BB60BA6CFB68D31AB3
:101E50007B607A6CBB68D31A3B60FB687F2B00DD2C
:101E6000BCE0BB687F2B00DDB8E07B68002B00DCAA
:101E7000B4E03B68002B00DCB0E05A4B1B68012B40
:101E80000DD0584B1B68022B07D0564B1B68032BF9
:101E900001D1BB6800E0FB6800E0FB6800E0BB68C4
:101EA0003B64504B1B68012B04D1BA683B68D318C4
:101EB000013B15E04B4B1B68022B04D1FA687B6891
:101EC000D318013B0CE0474B1B68032B04D1BA68C5
:101ED0003B68D318013B03E0FA687B68D318013BE9
:101EE000FB63404B1B68012B0DD03E4B1B68022B44
:101EF00007D03C4B1B68032B01D1FB6800E0BB689B
:101F000000E0BB6800E0FB68BB63364B1B68012B3D
:101F100004D1FA687B68D318013B15E0314B1B688C
:101F2000022B04D1BA683B68D318013B0CE02D4B5F
:101F30001B68032B04D1FA687B68D318013B03E0CC
:101F4000BA683B68D318013B7B633B1C1033264ABD
:101F50001A603B6C7F2B00D97F233A1C10325360F0
:101F6000FB6B7F2B00D97F233A1C103293603B1C04
:101F70001033181CFFF7C6FD3B1C10331B4A1A60B8
:101F8000BB6B7F2B00D97F233A1C103253607B6BD5
:101F90007F2B00D97F233A1C103293603B1C1033F7
:101FA000181CFFF7AFFD3B1C10335C221A603B1C72
:101FB0001033181CFFF7A6FD7B683A6853433B6358
:101FC0000023FB6406E0BB6D181CFFF7C9FDFB6C2A
:101FD0000133FB64FA6C3B6B9A42F4D3BD4614B0F8
:101FE00080BDC046C004001015020000750200004C
:101FF00080B582B000AF7860024B7A681A60BD4647
:1020000002B080BDB004001080B582B000AF78602F
:102010003960044B7A681A60034B3A681A60BD460F
:1020200002B080BDB8040010BC0400100FB4B0B5FD
:10203000C4B002AF8E2149007B187A1CFF321360B6
:10204000381C802359008C235B00DB191A687C1C28
:10205000FF34236800F0F0FD3B1C791DFF310B605D
:1020600050E07A1DFF3213681B780A2B08D12B4BE6
:1020700000221A602A4B1B685A1C294B1A6017E071
:102080007C1DFF3423681878244B1968244B1A6888
:10209000244B1C68244B1D68244B1B68009501933E
:1020A000231CFFF77BFD1D4B1B685A1C1B4B1A6042
:1020B000791DFF310B6801337A1DFF3213601B4B12
:1020C0001B6803338022141C1C41231C1A1C134B55
:1020D0001B689A4207D8114B00221A60104B1B68EC
:1020E0005A1C0F4B1A60114B1B6803338022111CC2
:1020F00019410B1C1A1C0A4B1B689A4202D8084B48
:1021000000221A607A1DFF3213681B78002BA8D1B9
:10211000BD4642B0B0BC08BC04B01847B8040010BB
:10212000BC04001014000010B4040010B00400102F
:1021300080B500AF0A4B1B681A1C042313400CD057
:10214000074B084A12689A61054B074A1268DA6120
:1021500000F00CF8024B04221A60BD4680BDC04658
:1021600000800140500A00104C0A001080B500AFFA
:10217000224B1B68002B08D1012004210022FEF70E
:10218000EBFC1F4B00221A601DE01E4B1A681E4B11
:102190009A4208D9012004210022FEF7DDFC184BE9
:1021A00000221A600FE0164B1A68184B9A4205D8A5
:1021B000012004210022FEF7CFFC04E001200421CD
:1021C0000122FEF7C9FC0F4B1B685A080C4B1B6819
:1021D000D2180B4B1A600A4B1A680B4B9A4202D961
:1021E000074B00221A60054B1B68002B04D0034BE1
:1021F0001B685A1E014B1A60BD4680BD540A001070
:10220000C4040010480A0010C05D0000DF2E00006A
:1022100080B582B000AF021CFB1D1A70064BFA1D80
:102220001278111C1F220A400121081C9040021C38
:102230001A60BD4602B080BD00E100E0B0B582B0DA
:1022400000AF021C3960FB1D1A70FB1D1B787F2B31
:1022500032D93049FB1D1B781A1C0F231340083B51
:1022600098082C4AFB1D1B781C1C0F232340083B9D
:102270009B0806339B00D3185B68FA1D1278141C68
:1022800003222240D200FF24251C95402A1CD24361
:102290001A403B689C01FF231C40FB1D1B781D1C42
:1022A00003232B40DB00251C9D402B1C1A43831D60
:1022B0009B00CB185A6029E0174BFA1D127852B2D6
:1022C00092081549F81D007840B28008C03080009F
:1022D0004158F81D0078041C03202040C000FF2452
:1022E000251C8540281CC043084039688C01FF210B
:1022F0000C40F91D09780D1C03212940C900251C3B
:102300008D40291C0143C0329200D150BD4602B01D
:10231000B0BDC04600ED00E000E100E080B586B051
:1023200000AFF860B9607A607B68002B03D12E4B58
:102330000122DA610CE0002002210122FEF7D2FB2B
:10234000294B0022DA61002002210122FEF704FC61
:10235000254AB0230221D150234B0222DA64224BBA
:1023600001225A66204B11221A66204B1F4A5268DE
:1023700001210A435A601D4A1C498023CB58802101
:10238000090119438023D150184A94230121D150C7
:10239000BB68012B07D1164BFA68013A1A60144B3F
:1023A00002221A6107E0124BFA68124952181A60A9
:1023B0000F4B1E221A6100237B6105E00C4B9B68CA
:1023C0003B617B6901337B617B69072BF6D9142064
:1023D000FFF71EFF14200321FFF730FF044B0222FA
:1023E0005A60BD4606B080BD0040044000800440F5
:1023F00000000440FF02000080B582B000AF0B4B2C
:10240000DB697B607A6801231340DBB2002B02D0CA
:10241000064B01221A627A680223134002D0034B52
:1024200002221A62BD4602B080BDC04600000440D0
:1024300080B584B000AF7860C046104BDB681A1CD2
:1024400012231340022BF8D10C4B7A689A60C046D5
:102450000A4BDB681A1C10231340F9D1C046074B06
:10246000DB681A1C04231340F9D0044B9B68FB6003
:10247000FB68181CBD4604B080BDC0460000044087
:1024800080B582B000AF78607B68181CFFF7D0FF82
:10249000BD4602B080BDC046B0B582B000AF021CE0
:1024A0003960FB1D1A70FB1D1B787F2B32D9304918
:1024B000FB1D1B781A1C0F231340083B98082C4A5D
:1024C000FB1D1B781C1C0F232340083B9B08063375
:1024D0009B00D3185B68FA1D1278141C032222405B
:1024E000D200FF24251C95402A1CD2431A403B6889
:1024F0009C01FF231C40FB1D1B781D1C03232B404C
:10250000DB00251C9D402B1C1A43831D9B00CB1810
:102510005A6029E0174BFA1D127852B292081549F9
:10252000F81D007840B28008C03080004158F81D86
:102530000078041C03202040C000FF24251C854097
:10254000281CC043084039688C01FF210C40F91D4C
:1025500009780D1C03212940C900251C8D40291C28
:102560000143C0329200D150BD4602B0B0BDC0465A
:1025700000ED00E000E100E080B582B000AF7860DF
:102580007A680E4B9A4201D9012312E00C4B7A680B
:102590001202120A013A5A6001235B42181C0321FD
:1025A000FFF77AFF064B00229A60054B07221A605C
:1025B0000023181CBD4602B080BDC046FFFFFF00CF
:1025C00010E000E080B500AF074B1B68181C6421C9
:1025D00000F0F0FC031C181CFFF7CEFF031C00D01A
:1025E000FEE7BD4680BDC0461C00001080B500AFB0
:1025F0000A4B1B68002B07D0094B1A68094B1A605D
:10260000064B00221A6004E0064B1B685A1C054B5F
:102610001A60FEF723FDBD4680BDC046CC04001005
:10262000580A0010C804001080B500AF024B1B68A8
:10263000181CBD4680BDC046C804001080B582B0DD
:1026400000AF7860044B7A681A60044B01221A606C
:10265000BD4602B080BDC046580A0010CC04001030
:1026600080B586B000AF7860FFF7DEFF031C7B61AA
:1026700000E0C046FFF7D8FF031C3B613A697B6965
:10268000D31AFB60FA687B689A42F2D9C046BD460D
:1026900006B080BD80B500AF074B1B681A1C012334
:1026A0001340DBB2002B04D0FEF72EFD024B0122BB
:1026B0001A60BD4680BDC04600C0004080B582B0F3
:1026C00000AF021CFB1D1A70064BFA1D1278111C7C
:1026D0001F220A400121081C9040021C1A60BD46BE
:1026E00002B080BD00E100E080B582B000AF021C06
:1026F000FB1D1A70074AFB1D1B78191C1F230B407A
:102700000121081C9840031C191C8023D150BD4690
:1027100002B080BD00E100E080B582B000AFFB1DDB
:10272000FA1D12781A703E4B9B681A1CBB1D1A705A
:10273000BB1DBA1D127852081A70BB1DBA1D117844
:1027400007220A401A70BB1D1B78032B2CD1344B77
:102750005B691A1C7B1D1A707B1D1A789E2313401F
:1027600009D07B1D1A782F4B1A602D4B1B681A1C41
:10277000FB1D1A7050E07B1D1A7801231340DBB259
:10278000002B48D0284B1B68254A1268D1B2274A33
:10279000D1545A1C244B1A60234B1B68402B3AD14E
:1027A000214B00221A6036E0BB1D1B78022B11D191
:1027B0001D4B1B681A4A1268D1B21C4AD1545A1CCC
:1027C000194B1A60184B1B68402B24D1164B002262
:1027D0001A6020E0BB1D1B78062B07D1114B1B682C
:1027E000802252001A430F4B1A6014E0BB1D1B7865
:1027F000012B10D10A4B5B691A1C7B1D1A707B1DC3
:102800001A782023134003D0094B01221A7002E0EA
:10281000074B00221A70C046BD4602B080BDC046BC
:10282000008000409C0A0010D00400105C0A0010D8
:102830001800001080B584B000AF7860424B0122D0
:102840001A70424B00221A60414B00221A60152078
:10285000FFF74AFF3F4A3F49A423CB580721181CE2
:102860008843011CA423D1503A4A3A49A423CB58A7
:1028700001211943A423D150364A3649A823CB5805
:102880000721181C8843011CA823D150314A314923
:10289000A823CB5801211943A823D1502E4A2E49F1
:1028A0008023CB588021490119438023D1502A4AE3
:1028B00098230121D150294B8322DA60264A98239C
:1028C000D358FB60244B9B6F1A1C254B1B6853434A
:1028D000181CF96800F06EFB031C1B09181C7968B2
:1028E00000F068FB031CBB601C4BBA68120A5A60FC
:1028F0001A4BB968FF220A401A60184B0322DA60AB
:10290000164B07229A60154B5B69FB60C046134B60
:102910005B691A1C60231340602BF8D102E00F4B57
:102920001B68FB600D4B5B691A1C01231340DBB273
:10293000002BF4D11520FFF7C1FE084B05225A6089
:10294000BD4604B080BDC04618000010D004001081
:10295000D404001000400440008004400080004087
:102960001C00001080B582B000AF021CFB1D1A7065
:10297000C046064B5B691A1C20231340F9D0034B59
:10298000FA1D12781A60BD4602B080BD008000407A
:1029900080B586B000AF786039607B681B687B616A
:1029A0007A693B1C0833101C191C002200F060FCE3
:1029B000031C3B61BB687A699A420AD03A690B4BA7
:1029C0009A4206D03A6980231B069A4201D001231D
:1029D00000E00023FB603B683A691A60BA687B68D4
:1029E0001A60FB68181CBD4606B080BDFFFFFF7F64
:1029F00080B59EB000AFF860B9607A601A1CFB1C0D
:102A00001A70FB1C1B785BB2D9175A184A403B1C42
:102A100067331A703B1C67331B785BB23B663B1C09
:102A200067331B785BB2012B05DD3B1C67331B78DA
:102A30005BB2242B07DDFB68002B02D0FB68002271
:102A40001A70FB68F4E03B1C80331B785BB2D9172B
:102A50005A184A403B1C5F331A703B1C5F331B788B
:102A60005BB2FB667B68DA179B185340BB65FB1CA7
:102A70001B787F2B07D87B68002B01DBBB6D00E048
:102A80007B68BB6606E07B68002B01DBBB6D00E06A
:102A9000BB6DBB6600237B67BB6E181C396E00F0F4
:102AA000CDFA0B1C7B657B6D092B04D87B6DDBB2EB
:102AB0003033DBB203E07B6DDBB25733DBB2391C62
:102AC00010317A6F8A1813707B6F01337B67B86E91
:102AD000396E00F06FFA031CBB667B6F3F2B07D982
:102AE000FB68002B02D0FB6800221A70FB689FE095
:102AF000BB6E002BD0D17B6F3B67BB681B68002B84
:102B00003CD07B68002B39DAFB1C1B787F2B35D936
:102B10003B1C80331B787F2B10D93B1C53332D2259
:102B20001A70FB683A1C533212781A70FB68013332
:102B3000FB60BB681B685A1EBB681A607B6F013361
:102B40003B671BE03B1C80331B787F2B01D8202385
:102B500000E030233A1C53321370FB683A1C5332A6
:102B600012781A70FB680133FB60BB681B685A1E41
:102B7000BB681A60FB6E013BFB6600E0C046BB68A9
:102B80001B685A1E9341DBB2FA6E396F9142924133
:102B90005242D2B21340DBB2002BD3D1BB681B68C8
:102BA000002B36D07B68002B33DAFB1C1B787F2B85
:102BB0002FD93B1C80331B787F2B2AD83B1C5333E7
:102BC0002D221A70FB683A1C533212781A70FB6877
:102BD0000133FB60BB681B685A1EBB681A6018E0B3
:102BE0007B6F013B7B673B1C5333391C10317A6F81
:102BF0008A1812781A70FB683A1C533212781A70CD
:102C0000FB680133FB60BB681B685A1EBB681A6017
:102C100000E0C046BB681B68002B02D07B6F002B16
:102C2000DED1FB68002B02D0FB6800221A70FB6823
:102C3000181CBD461EB080BD90B591B002AFF860C3
:102C4000B9607A603B607B68BB6129E1BB691B7836
:102C5000252B00D014E1BB690133BB613B1C37332A
:102C600001221A70BB691B78302B06D13B1C37330D
:102C7000FF221A70BB690133BB613B1C3633002253
:102C80001A703A1C18323B1C1433101C191CFFF725
:102C90007FFE031C03D07A693B1C36331A70BB6974
:102CA0001B786C2B02D1BB690133BB61BB691B78FC
:102CB000642B4DD007DC622B00D19EE00BDC252B72
:102CC00000D1B7E0C3E0752B5DD0782B00D177E061
:102CD000732B17D0BBE03B681A1D3A601A683B1C87
:102CE0002F331A70BB68002B00D1BEE0FB683A1C82
:102CF0002F3212781A70FB680133FB60BB68013B0E
:102D0000BB60B2E03B681A1D3A601B683B630AE097
:102D1000FB683A1C2E3212781A70FB680133FB6094
:102D2000BB68013BBB60BB68002B00D19FE03B1C34
:102D30002E333A6B12781A703B1C2E331B785A1EB6
:102D40009341DBB23A6B01323A63002BE0D18EE063
:102D50003B681A1D3A601B68BB623B1C36331B780C
:102D60003A1C373212785343DBB2DCB2F868391CB4
:102D70000831BA6A0A235B4264B20094FFF738FE56
:102D8000031CFB6078E03B681A1D3A601B687B629D
:102D90003B1C36331B783A1C373212785343DBB274
:102DA000D8B2F9683A1C08327B6A40B20090081C1D
:102DB000111C1A1C0A23FFF71BFE031CFB605BE0BF
:102DC0003B681A1D3A601B683B623B1C36331B781C
:102DD0003A1C373212785343DBB2D8B2F9683A1C46
:102DE00008323B6A40B20090081C111C1A1C1023C8
:102DF000FFF7FEFD031CFB603EE03B681A1D3A60D6
:102E00001B68FB613B1C36331B783A1C3732127847
:102E10005343DBB2D8B2F9683A1C0832FB6940B2BE
:102E20000090081C111C1A1C0223FFF7E1FD031C73
:102E3000FB6021E0BB68002B1BD0FB6825221A70C9
:102E4000FB680133FB60BB68013BBB6011E0BB6802
:102E5000002B10D0BB691A78FB681A70FB6801332D
:102E6000FB60BB68013BBB6005E0C04604E0C046B8
:102E700002E0C04600E0C046BB690133BB610FE021
:102E8000BB68002B09D0BB691A78FB681A70FB6815
:102E90000133FB60BB68013BBB60BB690133BB61B5
:102EA000BB691B78002B00D0D0E6FB68002B02D05A
:102EB000FB6800221A70FB68181CBD460FB090BD5D
:102EC00080B500AFC046BD4680BDC04680B582B06B
:102ED00000AF364A35498E239B00CB582021181C61
:102EE0008843011C8E239B00D150304B00221A6274
:102EF00000237B6004E0FFF7E3FF7B6801337B6026
:102F00007B68C72BF7D9294B00221A64274B012273
:102F10005A64264B00225A64244B01225A64C0464C
:102F2000224B5B6C1A1C01231340F9D01F4B232248
:102F30009A601E4A1D498E239B00CB588021181C85
:102F40008843011C8E239B00D150C046174BDB6881
:102F50001A1C01231340F9D0144B03221A67134B98
:102F600001225A67114B00225A67104B01225A67FF
:102F7000C0460E4B5B6F1A1C01231340F9D00B4B5C
:102F800001229A67094A80230949D150074A9423AC
:102F90000121D150054A98230121D150034A9C2395
:102FA0000121D150BD4602B080BDC0460080044022
:102FB000FFFF0100002934D00123002210B4884211
:102FC0002CD301242407A14204D2814202D2090158
:102FD0001B01F8E7E400A14204D2814202D2490079
:102FE0005B00F8E7884201D3401A1A434C08A0421C
:102FF00002D3001B5C0822438C08A04202D3001BB2
:103000009C082243CC08A04202D3001BDC082243C8
:10301000002803D01B0901D00909E3E7101C10BCEC
:103020007047002801D00020C04307B4024802A125
:103030004018029003BDC046D90000000029F0D01E
:1030400003B5FFF7B9FF0EBC4243891A1847C046C3
:10305000002941D010B4041C4C40A4460123002296
:10306000002900D54942002800D5404288422CD38F
:1030700001242407A14204D2814202D209011B018A
:10308000F8E7E400A14204D2814202D249005B0089
:10309000F8E7884201D3401A1A434C08A04202D3F1
:1030A000001B5C0822438C08A04202D3001B9C0832
:1030B0002243CC08A04202D3001BDC082243002894
:1030C00003D01B0901D00909E3E7101C6446002C5A
:1030D00000D5404210BC7047002806D003DB00201A
:1030E000C043400801E08020000607B4024802A166
:1030F0004018029003BDC046190000000029EBD023
:1031000003B5FFF7A7FF0EBC4243891A1847C04614
:103110007047C046C317C01858407047F0B55F46A7
:1031200056464D464446F0B49846504B85B0009103
:103130001F6803900B1C0292082100E02B1C1C78D6
:103140005D1C3A1952781142F8D12D2C6CD0002612
:1031500001962B2C00D176E0404643424341102893
:103160004FD0C246002B4CD1019E51467342734151
:1031700080263606F61A301CFFF760FF301C8946A1
:103180005146FFF717FF03260421002200238C4637
:10319000B34610E0303CA0451BDD98423CD3002AEA
:1031A0003ADB4C4501DD834236D051464B43012288
:1031B000E3182C7801353919497866460E42E9D171
:1031C0005E46314005D05726012917D0A41BA045E3
:1031D000E3DC561C2DD0019E5842002E22D0029EC8
:1031E000002E04D0002A1AD1009E02990E6005B06C
:1031F0003CBC90469946A246AB46F0BD3726A41B80
:10320000E5E7302C22D0C246002BADD0302C28D0A0
:103210000A2082468046A7E701225242C9E7013DC3
:103220000095E1E7181CDAE701265C789D1C019601
:1032300092E7019E8020734273410006039EC01AEC
:1032400022233360CBE75C789D1C85E72A78582AD7
:1032500001D0782AD7D110216C788A460235884669
:1032600082E708239A4698467EE7C0462000001071
:1032700038B5131C044A051C0C1C1068291C221CA0
:10328000FFF74CFF38BDC04650040010030000009B
:103290000000000003000000030000000500000023
:1032A0000300000002000000040000002A070000E4
:1032B0001A060000500600005006000050060000EC
:1032C00050060000500600005006000050060000A6
:1032D00050060000AC060000E80600002A070000C7
:1032E00098040000220500002205000022050000CD
:1032F0002205000022050000220500002205000032
:10330000220500008A050000D205000000000050E0
:10331000000001500000025000000350F00C0000BB
:103320007C0E00007C0E00007C0E00007C0E000075
:103330007C0E00007C0E00007C0E00001C0D0000C6
:103340007C0E00007C0E00007C0E00007C0E000055
:103350007C0E00007C0E00007C0E0000480D00007A
:103360007C0E00007C0E00007C0E00007C0E000035
:103370007C0E00007C0E00007C0E00006C0E000035
:103380007C0E00007C0E00007C0E00007C0E000015
:103390007C0E00007C0E00007C0E0000760D00000C
:1033A0007C0E00007C0E00007C0E00007C0E0000F5
:1033B0007C0E00007C0E00007C0E0000760D0000EC
:1033C0007C0E00007C0E00007C0E00007C0E0000D5
:1033D0007C0E00007C0E00007C0E00007C0E0000C5
:1033E0007C0E00007C0E00007C0E00007C0E0000B5
:1033F0007C0E00007C0E00007C0E0000D00D000052
:103400007C0E00007C0E00007C0E00007C0E000094
:103410007C0E00007C0E00007C0E00006C0E000094
:103420007C0E00007C0E00007C0E00007C0E000074
:103430007C0E00007C0E00007C0E0000F40D0000ED
:103440007C0E00007C0E00007C0E00007C0E000054
:103450007C0E00007C0E00007C0E00003E0E000082
:10346000010000000100000000000000000000005A
:10347000000000000000000008000000090000003B
:103480000200000006000000080000000900000023
:103490008E100000A2100000BA100000EC10000016
:1034A000D210000058202533640A0000592025332B
:1034B000640A00005A202533640A0000000000005E
:1034C0000000000010101010000010002828280034
:1034D0000000000028287C287C282800103C503858
:1034E0001478100060640810204C0C003048502004
:1034F0005448340030102000000000000810202044
:10350000201008002010080808102000001054386F
:10351000541000000010107C10100000000000305B
:10352000102000000000007C0000000000000000EF
:1035300000606000000408102040000038444C5433
:10354000644438001030101010103800384404085B
:1035500010207C007C081008044438000818284813
:103560007C0808007C407804044438001820407827
:10357000444438007C04081020202000384444389B
:10358000444438003844443C0408300000303000E3
:103590003030000000303000301020000810204093
:1035A0002010080000007C007C00000020100804AF
:1035B0000810200038440408100010003844043477
:1035C00054543800384444447C444400784444789B
:1035D00044447800384440404044380070484444F3
:1035E000444870007C40407C40407C007C404078F7
:1035F000404040003844407C44443C004444447CC7
:103600004444440038101010101038001C080808FA
:103610000848300044485060504844004040404012
:1036200040407C00446C545444444400444464543A
:103630004C4444003844444444443800784444787A
:103640004040400038444444544834007844447C6A
:10365000504844003C404038040478007C1010106E
:10366000101010004444444444443800444444444A
:10367000442810004444445454542800444428101E
:103680002844440044444428101010007C040810CE
:1036900020407C00382020202020380044287C1046
:1036A0007C1010003808080808083800102844006A
:1036B000000000000000000000007C002010080056
:1036C00000000000000038043C443C0040405864C6
:1036D0004444780000003840404438000404344C2E
:1036E00044443C00000038447C40380018242070DA
:1036F00020202000003C44443C04380040405864F2
:10370000444444001000301010103800080018081D
:1037100008483000404048506050480030101010B9
:1037200010103800000068545444440000005864ED
:10373000444444000000384444443800007844784D
:10374000404040000000344C3C0404000000586439
:103750004040400000003C403804780020207C209D
:103760002024180000004444444C34000000444429
:103770004428100000004444545428000000442809
:10378000102844000044443C0404380000007C0835
:1037900010207C00081010201010080010101010CD
:1037A0001010100020101008101020000000000061
:1037B00000000000000000000000000002030405FB
:1037C000060708090A0B0C0D0E0F1011121315171E
:1037D000191B1D1F212325272A2D303336393C3F45
:1037E0004245484C5054585C6064686C7074787DF5
:1037F00082878C91969BA0A5AAAFB4002000000000
:1038000030780000002020202020202020202828A0
:103810002828282020202020202020202020202090
:1038200020202020208810101010101010101010D0
:103830001010101010040404040404040404041000
:10384000101010101010414141414141010101018E
:103850000101010101010101010101010101010158
:103860001010101010104242424242420202020264
:103870000202020202020202020202020202020228
:1038800010101010200000000000000000000000D8
:103890000000000000000000000000000000000028
:1038A0000000000000000000000000000000000018
:1038B0000000000000000000000000000000000008
:1038C00000000000000000000000000000000000F8
:1038D00000000000000000000000000000000000E8
:1038E00000000000000000000000000000000000D8
:1038F00000000000000000000000000000000000C8
:0C39000000000000000000004300000078
:10390C00180001401C00014020000140240001402F
:10391C000D0E1617FFFF000001000000006CDC020A
:10392C000438000000000000000000001403001028
:10393C007C030010E40300100000000000000000F5
:10394C00000000000000000000000000000000006B
:10395C00000000000000000000000000083900001A
:10396C00000000000000000000000000000000004B
:10397C00000000000000000000000000000000003B
:10398C00000000000000000000000000000000002B
:10399C00000000000000000000000000000000001B
:1039AC00000000000000000000000000000000000B
:1039BC0000000000000000000000000000000000FB
:1039CC0000000000000000000000000000000000EB
:1039DC0001000000000000000E33CDAB34126DE688
:1039EC00ECDE05000B0000000000000000000000F1
:1039FC0000000000000000000000000000000000BB
:103A0C0000000000000000000000000000000000AA
:103A1C00000000000000000000000000000000009A
:103A2C00000000000000000000000000000000008A
:043D5C00280000102B
:0400000300000A5996
:00000001FF
